{"abi":[{"type":"constructor","inputs":[],"stateMutability":"nonpayable"},{"type":"function","name":"MIN_BET","inputs":[],"outputs":[{"name":"","type":"uint128","internalType":"uint128"}],"stateMutability":"view"},{"type":"function","name":"TURING_TOKEN","inputs":[],"outputs":[{"name":"","type":"address","internalType":"address"}],"stateMutability":"view"},{"type":"function","name":"WETH","inputs":[],"outputs":[{"name":"","type":"address","internalType":"address"}],"stateMutability":"view"},{"type":"function","name":"accumulatedFees","inputs":[],"outputs":[{"name":"","type":"uint256","internalType":"uint256"}],"stateMutability":"view"},{"type":"function","name":"createGame","inputs":[{"name":"bet","type":"uint256","internalType":"uint256"}],"outputs":[{"name":"","type":"uint32","internalType":"uint32"}],"stateMutability":"payable"},{"type":"function","name":"getGame","inputs":[{"name":"gameId","type":"uint32","internalType":"uint32"}],"outputs":[{"name":"","type":"tuple","internalType":"struct ITuringGame.Game","components":[{"name":"id","type":"uint32","internalType":"uint32"},{"name":"bet","type":"uint256","internalType":"uint256"},{"name":"deadline","type":"uint256","internalType":"uint256"},{"name":"validated","type":"bool","internalType":"bool"},{"name":"player1","type":"tuple","internalType":"struct ITuringGame.PlayerData","components":[{"name":"addr","type":"address","internalType":"address"},{"name":"voted","type":"bool","internalType":"bool"},{"name":"guessId","type":"uint8","internalType":"uint8"},{"name":"guessed","type":"bool","internalType":"bool"}]},{"name":"player2","type":"tuple","internalType":"struct ITuringGame.PlayerData","components":[{"name":"addr","type":"address","internalType":"address"},{"name":"voted","type":"bool","internalType":"bool"},{"name":"guessId","type":"uint8","internalType":"uint8"},{"name":"guessed","type":"bool","internalType":"bool"}]}]}],"stateMutability":"view"},{"type":"function","name":"joinGame","inputs":[{"name":"gameId","type":"uint32","internalType":"uint32"}],"outputs":[],"stateMutability":"payable"},{"type":"function","name":"minTuringBalance","inputs":[],"outputs":[{"name":"","type":"uint256","internalType":"uint256"}],"stateMutability":"view"},{"type":"function","name":"owner","inputs":[],"outputs":[{"name":"","type":"address","internalType":"address"}],"stateMutability":"view"},{"type":"function","name":"renounceOwnership","inputs":[],"outputs":[],"stateMutability":"nonpayable"},{"type":"function","name":"transferOwnership","inputs":[{"name":"newOwner","type":"address","internalType":"address"}],"outputs":[],"stateMutability":"nonpayable"},{"type":"function","name":"validateVotes","inputs":[{"name":"gameId","type":"uint32","internalType":"uint32"},{"name":"player1","type":"uint8","internalType":"uint8"},{"name":"player2","type":"uint8","internalType":"uint8"},{"name":"adminExcess","type":"uint256","internalType":"uint256"}],"outputs":[],"stateMutability":"nonpayable"},{"type":"function","name":"vote","inputs":[{"name":"gameId","type":"uint32","internalType":"uint32"},{"name":"guessId","type":"uint8","internalType":"uint8"}],"outputs":[],"stateMutability":"nonpayable"},{"type":"event","name":"GameCreated","inputs":[{"name":"gameId","type":"uint32","indexed":true,"internalType":"uint32"},{"name":"creator","type":"address","indexed":false,"internalType":"address"},{"name":"bet","type":"uint256","indexed":false,"internalType":"uint256"}],"anonymous":false},{"type":"event","name":"GameValidated","inputs":[{"name":"gameId","type":"uint32","indexed":true,"internalType":"uint32"},{"name":"player1Guessed","type":"bool","indexed":false,"internalType":"bool"},{"name":"player2Guessed","type":"bool","indexed":false,"internalType":"bool"}],"anonymous":false},{"type":"event","name":"Joined","inputs":[{"name":"gameId","type":"uint32","indexed":true,"internalType":"uint32"},{"name":"joiner","type":"address","indexed":false,"internalType":"address"}],"anonymous":false},{"type":"event","name":"OwnershipTransferred","inputs":[{"name":"previousOwner","type":"address","indexed":true,"internalType":"address"},{"name":"newOwner","type":"address","indexed":true,"internalType":"address"}],"anonymous":false},{"type":"event","name":"Vote","inputs":[{"name":"gameId","type":"uint32","indexed":true,"internalType":"uint32"},{"name":"guessId","type":"uint8","indexed":false,"internalType":"uint8"}],"anonymous":false},{"type":"error","name":"AlreadyInGame","inputs":[]},{"type":"error","name":"AlreadyVoted","inputs":[]},{"type":"error","name":"FailedEthSend","inputs":[]},{"type":"error","name":"GameEnded","inputs":[]},{"type":"error","name":"GameInProgress","inputs":[]},{"type":"error","name":"GameStarted","inputs":[]},{"type":"error","name":"IncorrectBet","inputs":[]},{"type":"error","name":"LowBet","inputs":[]},{"type":"error","name":"LowTuringTokenBalance","inputs":[]},{"type":"error","name":"NotGamePlayer","inputs":[]},{"type":"error","name":"OwnableInvalidOwner","inputs":[{"name":"owner","type":"address","internalType":"address"}]},{"type":"error","name":"OwnableUnauthorizedAccount","inputs":[{"name":"account","type":"address","internalType":"address"}]}],"bytecode":{"object":"0x6080604052670de0b6b3a764000060015534801561001c57600080fd5b50338061004357604051631e4fbdf760e01b81526000600482015260240160405180910390fd5b61004c81610052565b506100a2565b600080546001600160a01b038381166001600160a01b0319831681178455604051919092169283917f8be0079c531659141344cd1fd0a4f28419497f9722a3daafe3b4186f6b6457e09190a35050565b610f25806100b16000396000f3fe6080604052600436106100c25760003560e01c8063812f0fb01161007f5780639767fb72116100595780639767fb721461021b578063ad5c46481461023b578063f03eadae14610256578063f2fde38b1461027657600080fd5b8063812f0fb0146101945780638da5cb5b146101c1578063918f948e146101f357600080fd5b80632915724f146100c7578063392b6753146100dc57806348e837b914610105578063587f5ed71461012d5780636540742f14610143578063715018a61461017f575b600080fd5b6100da6100d5366004610cb1565b610296565b005b3480156100e857600080fd5b506100f260015481565b6040519081526020015b60405180910390f35b610118610113366004610cd3565b6103c2565b60405163ffffffff90911681526020016100fc565b34801561013957600080fd5b506100f260025481565b34801561014f57600080fd5b5061015e66038d7ea4c6800081565b6040516fffffffffffffffffffffffffffffffff90911681526020016100fc565b34801561018b57600080fd5b506100da6104d9565b3480156101a057600080fd5b506101b46101af366004610cb1565b6104ed565b6040516100fc9190610cec565b3480156101cd57600080fd5b506000546001600160a01b03165b6040516001600160a01b0390911681526020016100fc565b3480156101ff57600080fd5b506101db736ee6e27a965d5566970dcfa347fb75a8c386e2e781565b34801561022757600080fd5b506100da610236366004610db4565b6105d6565b34801561024757600080fd5b506101db6006602160991b0181565b34801561026257600080fd5b506100da610271366004610de7565b6106bd565b34801561028257600080fd5b506100da610291366004610e32565b610920565b63ffffffff8116600090815260046020819052604090912090810154336001600160a01b03909116036102dc5760405163c56fb25360e01b815260040160405180910390fd5b60058101546001600160a01b03161561030857604051631d8bc98160e21b815260040160405180910390fd5b3481600101541461032c5760405163507c24df60e01b815260040160405180910390fd5b60408051608081018252338082526000602083018190529282018390526060909101919091526005820180546001600160b81b03191662ffffff60a01b1990921691909117905561037e4260b4610e71565b600282015560405133815263ffffffff8316907f8b3d4a4e7362caeefb788f4cb42e64dd1ea226941bc3d0cb73863595e7a401d09060200160405180910390a25050565b600066038d7ea4c680008210156103ec57604051632e1ace6360e21b815260040160405180910390fd5b34821461040c5760405163507c24df60e01b815260040160405180910390fd5b610414610963565b6003805463ffffffff808216600181810190921663ffffffff1993841617909355600083815260046020818152604080842080549096168717865593850188905560028501839055835160808101855233808252818301859052818601859052606090910193909352908401805462ffffff60a01b1984166001600160b81b03199091161790558251918252810186905283917f48c63a2766cb910ba33c51568f49d86480f13c99942424849a094ff86b2ec461910160405180910390a25092915050565b6104e16109f8565b6104eb6000610a25565b565b6104f5610c15565b5063ffffffff908116600090815260046020818152604092839020835160c08101855281549095168552600181015485830152600281015485850152600381015460ff9081161515606080880191909152855160808181018852958401546001600160a01b038082168352600160a01b8083048616151584890152600160a81b8084048716858c0152600160b01b938490048716151585870152898c019490945289519889018a526005909601549081168852948504841615159587019590955283048216958501959095529190041615159181019190915260a082015290565b63ffffffff821660009081526004602052604090206105f481610a75565b6004810154336001600160a01b03909116036106395760048101805460ff60a01b1960ff8516600160a81b021661ffff60a01b1990911617600160a01b17905561067a565b6005810154336001600160a01b039091160361067a5760058101805460ff60a01b1960ff8516600160a81b021661ffff60a01b1990911617600160a01b1790555b60405160ff8316815263ffffffff8416907fec02d320e4714a639fcd2c2a0591850da6af03797fe598fd29865b8c9f8fe7389060200160405180910390a2505050565b6106c56109f8565b63ffffffff8416600090815260046020526040902060028101544211801561070f57506004810154600160a01b900460ff16158061070f57506005810154600160a01b900460ff16155b1561072d57604051633497d0d160e21b815260040160405180910390fd5b600481018054600160b01b600160a81b80830460ff90811681891614830260ff60b01b1994851617909455600585018054918204851694891694909414909102911617905560038101805460ff1916600117905561079c6107966000546001600160a01b031690565b83610b9c565b600082826001015460026107b09190610e8a565b6107ba9190610ea1565b6004830154909150600160b01b900460ff1680156107e357506005820154600160b01b900460ff165b1561082e5760006107f5600283610eb4565b6004840154909150610810906001600160a01b031682610b9c565b6005830154610828906001600160a01b031682610b9c565b506108b8565b6004820154600160b01b900460ff161561085f57600482015461085a906001600160a01b031682610b9c565b6108b8565b6005820154600160b01b900460ff161561088b57600582015461085a906001600160a01b031682610b9c565b806002600082825461089d9190610e71565b90915550506000546108b8906001600160a01b031682610b9c565b600482015460058301546040805160ff600160b01b94859004811615158252939092049092161515602082015263ffffffff8816917f1f22e9a5388a82fa87219144200e10bb712af8cdba852ce1d45121b697a6df19910160405180910390a2505050505050565b6109286109f8565b6001600160a01b03811661095757604051631e4fbdf760e01b8152600060048201526024015b60405180910390fd5b61096081610a25565b50565b6001546040516370a0823160e01b8152336004820152736ee6e27a965d5566970dcfa347fb75a8c386e2e7906370a0823190602401602060405180830381865afa1580156109b5573d6000803e3d6000fd5b505050506040513d601f19601f820116820180604052508101906109d99190610ed6565b10156104eb576040516304b9314360e51b815260040160405180910390fd5b6000546001600160a01b031633146104eb5760405163118cdaa760e01b815233600482015260240161094e565b600080546001600160a01b038381166001600160a01b0319831681178455604051919092169283917f8be0079c531659141344cd1fd0a4f28419497f9722a3daafe3b4186f6b6457e09190a35050565b8060020154421115610a9a576040516308426a3f60e11b815260040160405180910390fd5b60048101546001600160a01b031615801590610ac2575060058101546001600160a01b031615155b8015610adb575060048101546001600160a01b03163314155b8015610af4575060058101546001600160a01b03163314155b15610b1257604051634931a44d60e01b815260040160405180910390fd5b60048101546001600160a01b031633148015610b3957506004810154600160a01b900460ff165b15610b5757604051637c9a1cf960e01b815260040160405180910390fd5b60058101546001600160a01b031633148015610b7e57506005810154600160a01b900460ff165b1561096057604051637c9a1cf960e01b815260040160405180910390fd5b6000826001600160a01b03168260405160006040518083038185875af1925050503d8060008114610be9576040519150601f19603f3d011682016040523d82523d6000602084013e610bee565b606091505b5050905080610c105760405163b5747cc760e01b815260040160405180910390fd5b505050565b6040518060c00160405280600063ffffffff1681526020016000815260200160008152602001600015158152602001610c6e60408051608081018252600080825260208201819052918101829052606081019190915290565b81526040805160808101825260008082526020828101829052928201819052606082015291015290565b803563ffffffff81168114610cac57600080fd5b919050565b600060208284031215610cc357600080fd5b610ccc82610c98565b9392505050565b600060208284031215610ce557600080fd5b5035919050565b60006101808201905063ffffffff835116825260208301516020830152604083015160408301526060830151151560608301526080830151610d5f608084018280516001600160a01b0316825260208082015115159083015260408082015160ff16908301526060908101511515910152565b5060a0929092015180516001600160a01b031661010083015260208101511515610120830152604081015160ff166101408301526060015115156101609091015290565b803560ff81168114610cac57600080fd5b60008060408385031215610dc757600080fd5b610dd083610c98565b9150610dde60208401610da3565b90509250929050565b60008060008060808587031215610dfd57600080fd5b610e0685610c98565b9350610e1460208601610da3565b9250610e2260408601610da3565b9396929550929360600135925050565b600060208284031215610e4457600080fd5b81356001600160a01b0381168114610ccc57600080fd5b634e487b7160e01b600052601160045260246000fd5b80820180821115610e8457610e84610e5b565b92915050565b8082028115828204841417610e8457610e84610e5b565b81810381811115610e8457610e84610e5b565b600082610ed157634e487b7160e01b600052601260045260246000fd5b500490565b600060208284031215610ee857600080fd5b505191905056fea26469706673582212209d3ecf1747129d3141130ac359b7c0e6911ff90d54adcaf6013262c293d40ce564736f6c63430008160033","linkReferences":{}},"methodIdentifiers":{"MIN_BET()":"6540742f","TURING_TOKEN()":"918f948e","WETH()":"ad5c4648","accumulatedFees()":"587f5ed7","createGame(uint256)":"48e837b9","getGame(uint32)":"812f0fb0","joinGame(uint32)":"2915724f","minTuringBalance()":"392b6753","owner()":"8da5cb5b","renounceOwnership()":"715018a6","transferOwnership(address)":"f2fde38b","validateVotes(uint32,uint8,uint8,uint256)":"f03eadae","vote(uint32,uint8)":"9767fb72"},"id":21}